:020000040000FA
:06000000EDEF00F012001C
:06002A00010006020000C7
:080030008A000000020000003C
:080038002A0EF66E000EF76EB1
:10004000000EF86E00010900F550856F0900F550AB
:10005000866F03E1856701D03DD00900F550806FC0
:100060000900F550816F0900F550826F0900090001
:10007000F550E96E0900F550EA6E09000900090023
:10008000F550836F0900F550846F09000900F6CF21
:1000900087F0F7CF88F0F8CF89F080C0F6FF81C0F5
:1000A000F7FF82C0F8FF0001835302E1845307E0A9
:1000B0000900F550EE6E8307F8E28407F9D787C090
:1000C000F6FF88C0F7FF89C0F8FF00018507000E22
:0600D000865BBFD71200A1
:0A00D600D9CFE6FFDACFE6FFE1CF55
:1000E000D9FFE2CFDAFFC26AC16AC06AFC0EDB4008
:1000F0007F0B3C0BC26EFB0EDB50C16EFC0EDB387F
:10010000F00B300BC112FD0EDB50800BC06EFD0EEC
:10011000DB380F0B070BC012FD0EDB50040DF35044
:10012000380BC012FC0EDBAE03D09E9C9D8CF28C73
:0E013000C280E552E5CFDAFFE7CFD9FF12001B
:02013E000F0EA2
:10014000C16E946A956A969292820D0EE66E8C0E3E
:10015000E66EE6686BEC00F0E552E552E55200EC25
:1001600001F0FBEC00F00009FCE1CEEC00F0F3CF75
:100170008AF0F4CF8BF00001F43407E28A518E0844
:10018000020E8B5502E2848201D084928AC083FFE2
:0C0190008BC002F0036A0250826EE1D7BF
:04019C00D9CFE6FFD2
:1001A000DACFE6FFE1CFD9FFE2CFDAFFE652E6523F
:1001B000C350DF6E010EC4CFDBFFDECF02F0DDCF18
:1001C00003F002C0F3FF03C0F4FFE552E552E5522D
:0A01D000E5CFDAFFE7CFD9FF1200F8
:0601DA0015EE00F025EE19
:1001E00000F0F86A019C1CEC00F002EC01F09FECBE
:0601F00000F0FBD7120035
:0A01F600C250020B01E0010E1200DE
:04020000C2821200A4
:020204001200E6
:020206000000F6
:020000040030CA
:0100010002FC
:010003001EDE
:010005008179
:00000001FF
