:020000040000FA
:06000000D3EF00F0120036
:040008006BEF00F0AA
:06002A000100C40100000A
:080030008A000000010000003D
:080038002A0EF66E000EF76EB1
:10004000000EF86E00010900F550856F0900F550AB
:10005000866F03E1856701D03DD00900F550806FC0
:100060000900F550816F0900F550826F0900090001
:10007000F550E96E0900F550EA6E09000900090023
:10008000F550836F0900F550846F09000900F6CF21
:1000900087F0F7CF88F0F8CF89F080C0F6FF81C0F5
:1000A000F7FF82C0F8FF0001835302E1845307E0A9
:1000B0000900F550EE6E8307F8E28407F9D787C090
:1000C000F6FF88C0F7FF89C0F8FF00018507000E22
:0600D000865BBFD71200A1
:0A00D600DACFE4FFE2CFDAFFF3CF48
:1000E000E4FFF4CFE4FFE652F2A211D0F292080E40
:1000F0000001E76E8A19E8AE02D0E73402D0E7507B
:100100008A5D01E28A2B8A51080DF350816EF0A2BC
:1001100007D0F09200018A6B8A51080DF350816E6E
:10012000E552E5CFF4FFE5CFF3FFE5CFDAFF1100AD
:100130000F0EC16E050E936EF28EF28CF288F19C5A
:10014000F292F088F198F092817E320EE66EACEC7D
:0801500000F0E552F9D712009E
:08015800FF0EE350036EEF0EF1
:1001600001D0F30EE76EE72EB3EF00F00C0E026E37
:10017000E76AE72EB9EF00F0022EB8EF00F0032E89
:06018000B1EF00F01200D7
:0A018600000EF36E00EE00F0060E0E
:1001900001D81200EA6002D0EE6AFCD7F350E960A1
:0601A0001200EE6AFCD71C
:0A01A60015EE00F025EE00F0F86AF7
:1001B000019C1CEC00F0E1EC00F098EC00F0FBD7A7
:0201C00012002B
:0201C200120029
:0101C400003A
:020000040030CA
:0100010002FC
:010003001EDE
:010005008179
:00000001FF
