:020000040000FA
:0600000023EF01F01200E5
:06002A0001006402000069
:080030008A0000000600000038
:080038002A0EF66E000EF76EB1
:10004000000EF86E00010900F550856F0900F550AB
:10005000866F03E1856701D03DD00900F550806FC0
:100060000900F550816F0900F550826F0900090001
:10007000F550E96E0900F550EA6E09000900090023
:10008000F550836F0900F550846F09000900F6CF21
:1000900087F0F7CF88F0F8CF89F080C0F6FF81C0F5
:1000A000F7FF82C0F8FF0001835302E1845307E0A9
:1000B0000900F550EE6E8307F8E28407F9D787C090
:1000C000F6FF88C0F7FF89C0F8FF00018507000E22
:0600D000865BBFD71200A1
:0A00D600D9CFE6FFDACFE6FFE1CF55
:1000E000D9FFE2CFDAFFAC6AAB6AFD0EDBB0AC88B9
:1000F000DBA202D0AC8CAB8CDBB4AC8EDBA602D026
:10010000AB8801D0AB8ADBA802D0AC8401D0AC9420
:100110009E98DBAC02D09D8A01D09D9A9E9ADBAE60
:1001200002D09D8801D09D98FB0EDB50AF6EFB0E78
:10013000FC0EDBCF03F003C002F0036A0250B06E86
:10014000AC8AAB8EE552E5CFDAFFE7CFD9FF1200DC
:10015000D9CFE6FFDACFE6FFE1CFD9FFE2CFDAFF72
:10016000ACA2FED7FC0EDBCFE9FFFD0EDBCFEAFF32
:10017000EF50E66E0CEC01F0E552FC0EDBCFE9FF30
:10018000DB2AFD0EDBCFEAFF01E3DB2AEF50E8E1DB
:0C019000E552E5CFDAFFE7CFD9FF1200FF
:04019C00D9CFE6FFD2
:1001A000DACFE6FFE1CFD9FFE2CFDAFFE652F20E77
:1001B00000019017ABAC03D09091ABB09081ABB481
:1001C0009085ABB29087AE50DF6EDF50E552E552BE
:0A01D000E5CFDAFFE7CFD9FF1200F8
:0601DA000F0EC16E949CA3
:1001E000948E959E470EE66EE66A3C0EE66E6BECCC
:1001F00000F0E552E552E5528A0EE66E000EE66E1C
:10020000A8EC00F0E552E552CEEC00F0670802E100
:08021000838EFAD7839EF8D714
:08021800D9CFE6FFDACFE6FFC3
:10022000E1CFD9FFE2CFDAFFACAC04D0AC90000153
:1002300090B3AC80FD0EDB50AD6EE552E5CFDAFF3A
:06024000E7CFD9FF120018
:0A02460015EE00F025EE00F0F86A56
:10025000019C1CEC00F031EC01F0EDEC00F0FBD760
:0202600012008A
:02026200120088
:0602640053544152540006
:020000040030CA
:0100010002FC
:0100020018E5
:010003001EDE
:010005008179
:010006008178
:00000001FF
