:020000040000FA
:06000000D6EF00F0120033
:040008006BEF00F0AA
:06002A000100CA01000004
:080030008A000000010000003D
:080038002A0EF66E000EF76EB1
:10004000000EF86E00010900F550856F0900F550AB
:10005000866F03E1856701D03DD00900F550806FC0
:100060000900F550816F0900F550826F0900090001
:10007000F550E96E0900F550EA6E09000900090023
:10008000F550836F0900F550846F09000900F6CF21
:1000900087F0F7CF88F0F8CF89F080C0F6FF81C0F5
:1000A000F7FF82C0F8FF0001835302E1845307E0A9
:1000B0000900F550EE6E8307F8E28407F9D787C090
:1000C000F6FF88C0F7FF89C0F8FF00018507000E22
:0600D000865BBFD71200A1
:0A00D600DACFE4FFE652F2A205D0F3
:1000E000F292080E00018A1104D0F092F00E000185
:1000F0008A158A6F816EE552E5CFDAFF11000F0E87
:10010000C16E050E936EF28EF29CF288F19CF29213
:10011000F28EF29CF088F19CF092800E00018A1120
:100120008A6F880E13D8400E00018A118A6F480E1C
:100130000DD8200E00018A118A6F280E07D8100EE4
:1001400000018A118A6F180E01D8E7D78A158A6FC5
:0E015000816E320EE66EAFEC00F0E55212004A
:02015E00FF0E92
:10016000E350036EEF0E01D0F30EE76EE72EB6EF0D
:1001700000F00C0E026EE76AE72EBCEF00F0022ED4
:0C018000BBEF00F0032EB4EF00F0120003
:04018C00000EF36E00
:1001900000EE00F0060E01D81200EA6002D0EE6A0E
:0C01A000FCD7F350E9601200EE6AFCD7B7
:0401AC0015EE00F05C
:1001B00025EE00F0F86A019C1CEC00F0E4EC00F085
:0801C0007FEC00F0FBD71200F8
:0201C800120023
:0101CA000034
:020000040030CA
:0100010002FC
:010003001EDE
:010005008179
:00000001FF
