:020000040000FA
:06000000EEEF00F012001B
:040008001CEF00F0F9
:06002A000100FA010000D4
:080030008A000000010000003D
:08003800DACFE4FFE2CFDAFFAA
:10004000E9CFE4FFEACFE4FFF6CFE4FFF7CFE4FF28
:10005000F5CFE4FFF3CFE4FFF4CFE4FFFACFE4FF02
:1000600000EE00F0020EE80403E3EECFE4FFFBD75E
:1000700000EE04F0000EE80403E3EECFE4FFFBD74C
:10008000E652F2A211D0F29284920A0E00018A5D29
:1000900009E28474320EE66ED7EC00F0E5520001FE
:1000A0008A2BF3D78A6B8482E55200EE03F0000EB0
:1000B000E80403E3E5CFEDFFFBD700EE01F0020E0D
:1000C000E80403E3E5CFEDFFFBD7E5CFFAFFE5CF8B
:1000D000F4FFE5CFF3FFE5CFF5FFE5CFF7FFE5CF81
:1000E000F6FFE5CFEAFFE5CFE9FFE5CFDAFF110044
:1000F0000F0EC16E969296949380F28EF288F19CC8
:10010000F2928472320EE66ED7EC00F0E552F9D727
:100110002A0EF66E000EF76E000EF86E0001090052
:10012000F550856F0900F550866F03E1856701D0B2
:100130003DD00900F550806F0900F550816F09002E
:10014000F550826F09000900F550E96E0900F5507D
:10015000EA6E090009000900F550836F0900F550A7
:10016000846F09000900F6CF87F0F7CF88F0F8CF49
:1001700089F080C0F6FF81C0F7FF82C0F8FF000160
:10018000835302E1845307E00900F550EE6E8307C4
:10019000F8E28407F9D787C0F6FF88C0F7FF89C067
:0E01A000F8FF00018507000E865BBFD7120036
:0201AE00FF0E42
:1001B000E350036EEF0E01D0F30EE76EE72EDEEF95
:1001C00000F00C0E026EE76AE72EE4EF00F0022E5C
:0C01D000E3EF00F0032EDCEF00F0120063
:0401DC0015EE00F02C
:1001E00025EE00F0F86A019C88EC00F0FCEC00F0D1
:0801F00078EC00F0FBD71200CF
:0201F8001200F3
:0101FA000004
:020000040030CA
:0100010002FC
:010003001EDE
:010005008179
:00000001FF
