:020000040000FA
:06000000C5EF00F0120044
:02002A000000D4
:04002C002A0EF66E34
:10003000000EF76E000EF86E00010900F550856F96
:100040000900F550866F03E1856701D03DD00900B6
:10005000F550806F0900F550816F0900F550826FEF
:1000600009000900F550E96E0900F550EA6E090033
:1000700009000900F550836F0900F550846F0900ED
:100080000900F6CF87F0F7CF88F0F8CF89F080C06D
:10009000F6FF81C0F7FF82C0F8FF0001835302E141
:1000A000845307E00900F550EE6E8307F8E28407F9
:1000B000F9D787C0F6FF88C0F7FF89C0F8FF0001B5
:0A00C0008507000E865BBFD7120013
:0600CA000F0EC16E9480D0
:1000D00095924D0EE66E88EC00F0E55282B00BD0A2
:1000E000F00EE66ED80EE66EA9EC00F0E552E55291
:1000F0009EA0FED70AD0780EE66EEC0EE66EA9EC56
:1001000000F0E552E5529EA0FED783729E90E6D79E
:10011000D9CFE6FFDACFE6FFE1CFD9FFE2CFDAFFB2
:10012000FD0EDB507E0BCD6EFD0EDBAC02D0CD8E16
:1001300001D0CD9ECF6ACE6A9E90DBAE02D09D806C
:1001400001D09D90CD80E552E5CFDAFFE7CFD9FF12
:0201500012009B
:0E015200D9CFE6FFDACFE6FFE1CFD9FFE2CF4B
:10016000DAFFE652E652FC0EDBCFDEFFDBCFDDFF2F
:10017000010EDB50CF6EDF50CE6EE552E552E552F8
:0A018000E5CFDAFFE7CFD9FF120048
:06018A0015EE00F025EE69
:1001900000F0F86A019C16EC00F0D3EC00F065EC7E
:0601A00000F0FBD7120085
:0201A600120045
:020000040030CA
:0100010002FC
:010003001EDE
:010005008377
:00000001FF
