:020000040000FA
:0600000094EF00F0120075
:02002A000000D4
:04002C002A0EF66E34
:10003000000EF76E000EF86E00010900F550856F96
:100040000900F550866F03E1856701D03DD00900B6
:10005000F550806F0900F550816F0900F550826FEF
:1000600009000900F550E96E0900F550EA6E090033
:1000700009000900F550836F0900F550846F0900ED
:100080000900F6CF87F0F7CF88F0F8CF89F080C06D
:10009000F6FF81C0F7FF82C0F8FF0001835302E141
:1000A000845307E00900F550EE6E8307F8E28407F9
:1000B000F9D787C0F6FF88C0F7FF89C0F8FF0001B5
:0A00C0008507000E865BBFD7120013
:0600CA000F0EC16E040ED2
:1000D000956E83B402D0836AFCD7100E07D8200E29
:1000E00005D8400E03D8800E01D8F3D7836E640E76
:0A00F000E66E7DEC00F0E552120010
:0600FA00FF0EE350036E4F
:10010000EF0E01D0F30EE76EE72E84EF00F00C0E39
:10011000026EE76AE72E8AEF00F0022E89EF00F008
:08012000032E82EF00F0120033
:0801280015EE00F025EE00F0D9
:10013000F86A019C16EC00F0A2EC00F065EC00F00F
:04014000FBD71200D7
:020144001200A7
:020000040030CA
:0100010002FC
:010003001EDE
:010005008179
:00000001FF
