:020000040000FA
:0600000009EF01F01200FF
:04000800B0EF00F065
:06002A000100300200009D
:080030008B000000010000003C
:080038002A0EF66E000EF76EB1
:10004000000EF86E00010900F550856F0900F550AB
:10005000866F03E1856701D03DD00900F550806FC0
:100060000900F550816F0900F550826F0900090001
:10007000F550E96E0900F550EA6E09000900090023
:10008000F550836F0900F550846F09000900F6CF21
:1000900087F0F7CF88F0F8CF89F080C0F6FF81C0F5
:1000A000F7FF82C0F8FF0001835302E1845307E0A9
:1000B0000900F550EE6E8307F8E28407F9D787C090
:1000C000F6FF88C0F7FF89C0F8FF00018507000E22
:0600D000865BBFD71200A1
:0A00D600D9CFE6FFDACFE6FFE1CF55
:1000E000D9FFE2CFDAFFAC6AAB6AFD0EDBB0AC88B9
:1000F000DBA202D0AC8CAB8CDBB4AC8EDBA602D026
:10010000AB8801D0AB8ADBB8AC849E98DBBAAB86F7
:10011000DBAC02D09D8A01D09D9A9E9ADBAE02D0C4
:100120009D8801D09D98FB0EDB50AF6EFB0EFC0E40
:10013000DBCF03F003C002F0036A0250B06EAC8A5A
:10014000AB8E949C948EAC50100B04E0AC50800BA2
:1001500001E1948CE552E5CFDAFFE7CFD9FF120039
:10016000DACFE4FFE2CFDAFFE652F2A205D0F29254
:1001700000018B2B8BC083FFE552E5CFDAFF110026
:100180000F0EC16EF28EF29CF288F19CF292949C5A
:100190009380938E956A330EE66EE66ABC0EE66E29
:1001A0006BEC00F0E552E552E55281BEFED781AE20
:1001B000FED7ACA2FED78BC0E6FFE2EC00F0E55222
:0401C000F4D712005E
:0C01C400D9CFE6FFDACFE6FFE1CFD9FF8C
:1001D000E2CFDAFFACAC04D0AC9000018AB3AC80C3
:1001E000FD0EDB50AD6EE552E5CFDAFFE7CFD9FF6C
:0201F0001200FB
:0E01F200000EF36E00EE00F0060E01D81200B3
:10020000EA6002D0EE6AFCD7F350E9601200EE6AB1
:02021000FCD719
:0E02120015EE00F025EE00F0F86A019C1CECE1
:0E02200000F017EC01F0C0EC00F0FBD712006C
:02022E001200BC
:0102300000CD
:020000040030CA
:0100010002FC
:0100020018E5
:010003001EDE
:010005008179
:010006008178
:00000001FF
