:020000040000FA
:060000008EEF00F012007B
:06002A0001003A01000094
:080030008A000000010000003D
:080038002A0EF66E000EF76EB1
:10004000000EF86E00010900F550856F0900F550AB
:10005000866F03E1856701D03DD00900F550806FC0
:100060000900F550816F0900F550826F0900090001
:10007000F550E96E0900F550EA6E09000900090023
:10008000F550836F0900F550846F09000900F6CF21
:1000900087F0F7CF88F0F8CF89F080C0F6FF81C0F5
:1000A000F7FF82C0F8FF0001835302E1845307E0A9
:1000B0000900F550EE6E8307F8E28407F9D787C090
:1000C000F6FF88C0F7FF89C0F8FF00018507000E22
:0600D000865BBFD71200A1
:0A00D6000F0EC16E93849480959A7A
:1000E000959C00018A51030802E2600E04D08A51F7
:1000F000200DF350600B836E81A40BD081A406D039
:1001000082A0FCD700018A6B836AF8D700018A2B92
:0C011000E8D782A0E6D78A6B836AE3D7A9
:04011C0015EE00F0EC
:1001200025EE00F0F86A019C1CEC00F09CEC00F05D
:080130006BEC00F0FBD712009C
:020138001200B3
:01013A0000C4
:020000040030CA
:0100010002FC
:010003001EDE
:010005008179
:00000001FF
