:020000040000FA
:0600000007EF01F0120001
:02002A000000D4
:04002C002A0EF66E34
:10003000000EF76E000EF86E00010900F550856F96
:100040000900F550866F03E1856701D03DD00900B6
:10005000F550806F0900F550816F0900F550826FEF
:1000600009000900F550E96E0900F550EA6E090033
:1000700009000900F550836F0900F550846F0900ED
:100080000900F6CF87F0F7CF88F0F8CF89F080C06D
:10009000F6FF81C0F7FF82C0F8FF0001835302E141
:1000A000845307E00900F550EE6E8307F8E28407F9
:1000B000F9D787C0F6FF88C0F7FF89C0F8FF0001B5
:0A00C0008507000E865BBFD7120013
:0600CA00D9CFE6FFDACFFA
:1000D000E6FFE1CFD9FFE2CFDAFFAC6AAB6AFD0EF3
:1000E000DBB0AC88DBA202D0AC8CAB8CDBB4AC8ECA
:1000F000DBA602D0AB8801D0AB8ADBB8AC849E987B
:10010000DBBAAB86DBAC02D09D8A01D09D9A9E9A69
:10011000DBAE02D09D8801D09D98FB0EDB50AF6E08
:10012000FB0EFC0EDBCF03F003C002F0036A0250AB
:10013000B06EAC8AAB8E949C948EAC50100B04E0E5
:10014000AC50800B01E1948CE552E5CFDAFFE7CFAC
:04015000D9FF1200C1
:0C015400D9CFE6FFE1CFD9FF020EE12673
:10016000DE6ADD6A0F0EC16E949C948E956A330E22
:10017000E66EE66A3C0EE66E65EC00F0E552E5528E
:10018000E552D8EC00F0026E036A02BE036802C0BA
:10019000DEFF03C0DDFFDF50836EF3D7020EE15CAC
:1001A00002E2E16AE552E16EE552E7CFD9FF1200C3
:1001B000D9CFE6FFDACFE6FFE1CFD9FFE2CFDAFF12
:1001C000E652F20E00018A17ABAC03D08A91ABB0B5
:1001D0008A81ABB48A85ABB28A87AE50DF6EDF50BE
:0E01E000E552E552E5CFDAFFE7CFD9FF120076
:0201EE00000E01
:1001F000F36E00EE00F0060E01D81200EA6002D0A5
:0E020000EE6AFCD7F350E9601200EE6AFCD7FC
:02020E0015EEEB
:1002100000F025EE00F0F86A019C16EC00F015ECF9
:0A02200001F0AAEC00F0FBD7120079
:02022A001200C0
:020000040030CA
:0100010002FC
:0100020018E5
:010003001EDE
:010005008179
:010006008178
:00000001FF
