:020000040000FA
:06000000F7EF00F0120012
:040008001CEF00F0F9
:06002A0001000C020000C1
:080030008A000000020000003C
:08003800DACFE4FFE2CFDAFFAA
:10004000E9CFE4FFEACFE4FFF6CFE4FFF7CFE4FF28
:10005000F5CFE4FFF3CFE4FFF4CFE4FFFACFE4FF02
:1000600000EE00F0020EE80403E3EECFE4FFFBD75E
:1000700000EE04F0000EE80403E3EECFE4FFFBD74C
:10008000E652F0A019D0F090829400018A6B8B6B3D
:10009000140E8BAF02D0D89003D08A5D000E8B591E
:1000A0000BE28278140EE66EE0EC00F0E5520001FF
:1000B0008A2B000E8B23ECD7E55200EE03F0000EE6
:1000C000E80403E3E5CFEDFFFBD700EE01F0020EFD
:1000D000E80403E3E5CFEDFFFBD7E5CFFAFFE5CF7B
:1000E000F4FFE5CFF3FFE5CFF5FFE5CFF7FFE5CF71
:1000F000F6FFE5CFEAFFE5CFE9FFE5CFDAFF110034
:100100000F0EC16E020E936E946AF28EF086F19A13
:10011000F0908274140EE66EE0EC00F0E552F9D730
:020120001200CB
:0E0122002A0EF66E000EF76E000EF86E00014B
:100130000900F550856F0900F550866F03E185676A
:1001400001D03DD00900F550806F0900F550816F56
:100150000900F550826F09000900F550E96E0900A9
:10016000F550EA6E090009000900F550836F090097
:10017000F550846F09000900F6CF87F0F7CF88F0BB
:10018000F8CF89F080C0F6FF81C0F7FF82C0F8FF8A
:100190000001835302E1845307E00900F550EE6E3D
:1001A0008307F8E28407F9D787C0F6FF88C0F7FF16
:1001B00089C0F8FF00018507000E865BBFD71200DB
:1001C000FF0EE350036EEF0E01D0F30EE76EE72E45
:1001D000E7EF00F00C0E026EE76AE72EEDEF00F09D
:0E01E000022EECEF00F0032EE5EF00F012000F
:0201EE0015EE0C
:1001F00000F025EE00F0F86A019C91EC00F005ECAF
:0A02000001F080EC00F0FBD71200C3
:02020A001200E0
:02020C000000F0
:020000040030CA
:0100010002FC
:010003001EDE
:010005008179
:00000001FF
