:020000040000FA
:0600000030EF03F01200D6
:06002A0001007E0600004B
:08003000800000001E0000002A
:080038000F0EC16E946A956A77
:10004000836A9AC005F09BC006F09CC007F09DC073
:1000500008F0EFEC01F006C0A9F007C0AAF000011B
:10006000A86BA851030817E30A0EA95D000EAA5950
:1000700002E211D00DD00A0E0B6E0C6AA9C006F078
:10008000AAC007F00AEC03F006C0A9F007C0AAF066
:100090000001A82BE6D7030ED880A855E96EEA6ABE
:1000A000D890E936EA368E0EE926000EEA22EECF27
:1000B00018F0EFCF19F018C006F019C007F06DEC7A
:1000C00001F005C014F006C015F007C016F008C016
:1000D00017F014C00AF015C00BF016C00CF017C0D2
:1000E0000DF09AC005F09BC006F09CC007F09DC0C3
:1000F00008F082EC01F0EFEC01F006C0A9F007C0B7
:10010000AAF0E80E146E030E156EA9C006F0AAC080
:1001100007F014C00BF015C00CF00AEC03F006C099
:1001200096F0A9C014F0AAC015F0E80E0B6E030EED
:100130000C6E14C006F015C007F00AEC03F002C004
:1001400014F003C015F0640E0B6E0C6A14C006F0B8
:1001500015C007F00AEC03F006C014F007C015F054
:1001600014C097F0A9C014F0AAC015F0E80E0B6EE9
:10017000030E0C6E14C006F015C007F00AEC03F075
:1001800002C014F003C015F0640E0B6E0C6A14C0AC
:1001900006F015C007F00AEC03F002C014F003C02B
:1001A00015F00A0E0B6E0C6A14C006F015C007F0AD
:1001B0000AEC03F006C014F007C015F014C098F064
:1001C000A9C014F0AAC015F0E80E0B6E030E0C6E59
:1001D00014C006F015C007F00AEC03F002C014F0DA
:1001E00003C015F0640E0B6E0C6A14C006F015C047
:1001F00007F00AEC03F002C014F003C015F00A0E79
:100200000B6E0C6A14C006F015C007F00AEC03F080
:1002100002C014F003C015F014C099F0010E836EF3
:1002200000019651EA6A800FE96E000EEA22EF5053
:10023000826E010EE66EF3EC02F0E552020E836E62
:1002400000019751EA6A800FE96E000EEA22EF5032
:10025000826E010EE66EF3EC02F0E552040E836E40
:1002600000019851EA6A800FE96E000EEA22EF5011
:10027000826E010EE66EF3EC02F0E552080E836E1C
:1002800000019951EA6A800FE96E000EEA22EF50F0
:10029000826E010EE66EF3EC02F0E5520001A85109
:1002A000EA6A8A0FE96E000EEA22EF50836EA851C7
:1002B000EA6A960FE96E000EEA22EF50EA6A800FB2
:1002C000E96E000EEA22EF507F0B826E010EE66EA1
:0A02D000F3EC02F0E552B5D612007F
:0602DA000F9E08D00F9EEC
:1002E00007AE05D0066C071EE86A07220F8E07C00E
:1002F00001F006C000F0136A126A8E0E026E036AE5
:100300003AEF02F00F6A76EC02F08EEC02F00FB6D4
:100310001EEF02F00FA205D00FB81EEF02F025EF7E
:1003200002F00FAA05D00FB01EEF02F025EF02F089
:100330000FB002D00FA802D031EF02F0036A0D50C7
:100340000824026EE86A03227E0E025EE86A035AFF
:10035000126A136A006A016A0C500702F4CF01F0B6
:10036000F3CF00F00B500702F3501326F450002295
:10037000000E01220C500602F3501326F450002206
:10038000000E01220A500702F3501226F4501322E5
:10039000000E002201220B500602F3501226F450E8
:1003A0001322000E002201220C500502F3501226E7
:1003B000F4501322000E002201220A500602F450CB
:1003C0001226000E1322002201220B500502F450C7
:1003D0001226000E1322002201223AEF02F00F6AC9
:1003E00076EC02F00FB6F9EF01F00FA20ED00FB4C9
:1003F00005D07F0E076EFF0E066E1FD0800E076EB3
:10040000066A1BD0076A066A18D00FB0FBD78F0E9A
:100410000860EDD77E0E0864F5D78E0E085C05E007
:10042000D89007320632082AF8D70FA406D0066CF7
:10043000071EE86A072207AEE5D712007F0E086E96
:10044000FF0E076E066E056E12007F0E0FBEFF0ECA
:10045000086E02D07F0E086E800E076E066A056A6F
:10046000F3D70FAE04D0800E086E076AF7D7086A7C
:10047000076AF4D70150001013101210F8E003BE01
:10048000F0D701BE0CD002500310EBE0D89012362A
:100490001336003601360206D8A00306F2D7035001
:1004A000D4E10228D2E012AE11D07F0E121402E184
:1004B00013A00CD0132AE86A0022012207E3D88097
:1004C000013200321332022A0228BFE00250C9E092
:1004D00013C005F000C006F00134076E0230086E4C
:1004E0000732089E0FBE088E24EF02F0073608364A
:1004F00002E30F840F7E06E10F80086A076A066A2E
:10050000056A1200082803E0D88007321200D8904C
:10051000073202E10F8212000F8612000C360D36F0
:1005200002E30F8C0F7E06E10F880D6A0C6A0B6ADE
:100530000A6A12000D2803E0D8800C321200D8900D
:080540000C32EAE10F8A1200FF
:080548002A0EF66E000EF76E9C
:10055000000EF86E00010900F550A36F0900F55078
:10056000A46F03E1A36701D03DD00900F5509E6F51
:100570000900F5509F6F0900F550A06F09000900B0
:10058000F550E96E0900F550EA6E0900090009000E
:10059000F550A16F0900F550A26F09000900F6CFD0
:1005A000A5F0F7CFA6F0F8CFA7F09EC0F6FF9FC04A
:1005B000F7FFA0C0F8FF0001A15302E1A25307E03A
:1005C0000900F550EE6EA107F8E2A207F9D7A5C021
:1005D000F6FFA6C0F7FFA7C0F8FF0001A307000EB3
:0605E000A45BBFD712006E
:0A05E600FF0EE3501B6EEF0E01D074
:1005F000F30EE76EE72EFAEF02F00C0E1A6EE76AC2
:10060000E72E00EF03F01A2EFFEF02F01B2EF8EF9B
:0406100002F01200E2
:0C061400036A026A100EE76ED8900636EA
:100620000736023603360B50025C0C50035805E3C4
:100630000B50025E0C50035A062AE72EF0D7120028
:10064000000EF36E00EE00F0060E01D81200EA6014
:1006500002D0EE6AFCD7F350E9601200EE6AFCD7D4
:1006600015EE00F025EE00F0F86A0F9CA4EC02F005
:0C0670003EEC03F01CEC00F0FBD7120085
:02067C0012006A
:02067E00C0F9C1
:10068000A4B0999282F880900102040801000A0047
:0C0690006400E80300000000D578E93E9B
:020000040030CA
:0100010002FC
:0100020018E5
:010003001EDE
:010005008179
:010006008178
:00000001FF
