:020000040000FA
:06000000F4EF00F0120015
:040008001CEF00F0F9
:06002A00010006020000C7
:080030008A000000010000003D
:08003800DACFE4FFE2CFDAFFAA
:10004000E652F2A208D0F292080E00018A118A6FDD
:100050008AC081FF07D0F092F00E00018A158A6FE6
:100060008AC081FFE552E5CFDAFF11000F0EC16EA5
:10007000050E936EF28EF29CF288F19CF292F28E53
:10008000F29CF088F19CF092800E00018A118A6F38
:10009000880E8A158A6F8AC081FF320EE66ECDEC1B
:1000A00000F0E552400E00018A118A6F480E8A1551
:1000B0008A6F8AC081FF320EE66ECDEC00F0E55209
:1000C000200E00018A118A6F280E8A158A6F8AC055
:1000D00081FF320EE66ECDEC00F0E552100E00010D
:1000E0008A118A6F180E8A158A6F8AC081FF320EB4
:0C00F000E66ECDEC00F0E552C7D7120020
:0400FC002A0EF66E64
:10010000000EF76E000EF86E00010900F550856FC5
:100110000900F550866F03E1856701D03DD00900E5
:10012000F550806F0900F550816F0900F550826F1E
:1001300009000900F550E96E0900F550EA6E090062
:1001400009000900F550836F0900F550846F09001C
:100150000900F6CF87F0F7CF88F0F8CF89F080C09C
:10016000F6FF81C0F7FF82C0F8FF0001835302E170
:10017000845307E00900F550EE6E8307F8E2840728
:10018000F9D787C0F6FF88C0F7FF89C0F8FF0001E4
:0A0190008507000E865BBFD7120042
:06019A00FF0EE350036EAE
:1001A000EF0E01D0F30EE76EE72ED4EF00F00C0E49
:1001B000026EE76AE72EDAEF00F0022ED9EF00F0C8
:0801C000032ED2EF00F0120043
:0801C800000EF36E00EE00F0E2
:1001D000060E01D81200EA6002D0EE6AFCD7F35096
:0801E000E9601200EE6AFCD791
:0801E80015EE00F025EE00F019
:1001F000F86A019C7EEC00F002EC01F036EC00F0B5
:04020000FBD7120016
:020204001200E6
:0102060000F7
:020000040030CA
:0100010002FC
:010003001EDE
:010005008179
:00000001FF
