:020000040000FA
:06000000A7EF00F0120062
:040008006BEF00F0AA
:06002A0001006C01000062
:080030008A000000010000003D
:080038002A0EF66E000EF76EB1
:10004000000EF86E00010900F550856F0900F550AB
:10005000866F03E1856701D03DD00900F550806FC0
:100060000900F550816F0900F550826F0900090001
:10007000F550E96E0900F550EA6E09000900090023
:10008000F550836F0900F550846F09000900F6CF21
:1000900087F0F7CF88F0F8CF89F080C0F6FF81C0F5
:1000A000F7FF82C0F8FF0001835302E1845307E0A9
:1000B0000900F550EE6E8307F8E28407F9D787C090
:1000C000F6FF88C0F7FF89C0F8FF00018507000E22
:0600D000865BBFD71200A1
:0A00D600DACFE4FFE652F2A20CD0EC
:1000E000F29200018A2B070E8A158A6F080E80147F
:1000F000806E8A518010806EE552E5CFDAFF1100E4
:100100000F0EC16E926A010E936EF28EF288F19C10
:10011000F2928076640EE66E90EC00F0E552F9D72C
:10012000FF0EE350036EEF0E01D0F30EE76EE72EE5
:1001300097EF00F00C0E026EE76AE72E9DEF00F0DD
:0E014000022E9CEF00F0032E95EF00F012004F
:02014E0015EEAC
:1001500000F025EE00F0F86A019C1CEC00F0B5EC14
:0A01600000F080EC00F0FBD7120065
:02016A00120081
:01016C000092
:020000040030CA
:0100010002FC
:010003001EDE
:010005008179
:00000001FF
